:02000000612875
:10000800FF00030E8301C2000A08C3008A017008BA
:10001800A4007108A3007208A2007308A1000C1CB8
:10002800352841083D06031D1B283C084006031DD2
:100038002D284808C4004908C5004A08C6004B08CE
:10004800C700C801C901CA01CB01C001C1013715E8
:100058003028C00A0319C10ACF308F002C308E0017
:100068000C108B1C52284808F0004908F1004A0877
:10007800F2004B08F300F00A0319F10A0319F20A17
:100088000319F30A7008C8007108C9007208CA0089
:100098007308CB008515000085118B102408F0002B
:1000A8002308F1002208F2002108F30043088A001F
:0A00B800420E8300FF0E7F0E0900C8
:1000C20083120313C401C501C601C701C801C901D6
:1000D200CA01CB01C001C10137110430831685006A
:1000E20001308600073083129F0085116730831626
:1000F200990018159F27C330FC00CD30FD00FD0B81
:100102008028FC0B80280F261A30FC00F830FD00F6
:10011200FD0B8928FC0B892800000130E7005D26D1
:100122000C30E7005D260130DD000230DE00523087
:10013200CC006130CD006430CE006930CF006F302A
:10014200D0004830D1006F30D2006230D30062302C
:10015200D4007930D5005330D6007430D7006F30D8
:10016200D8007230D9006530DA00DB014C30DF0094
:100172009D260230DD000430DE004530CC006C30BC
:10018200CD006530CE006330CF007430D0007230C5
:10019200D1006F30D2006E30D3006930D4006330AA
:1001A200D5007330D600D7014C30DF009D260830D1
:1001B200FB009D30FC000530FD00FD0BDE28FC0B32
:1001C200DE28FB0BDE28000000000130E7005D2680
:1001D2000130DD000230DE004730CC006530CD005A
:1001E2006930CE006730CF006530D0007230D10068
:1001F2002030D2004330D3006F30D4007530D500A8
:100202006E30D6007430D7006530D8007230D90015
:10021200DA014C30DF009D260230DD000330DE00C3
:100222007630CC006530CD007230CE007330CF0016
:100232006930D0006F30D1006E30D2002030D30050
:100242003130D4002E30D5003030D6003230D700D5
:10025200D8014C30DF009D260830FB009D30FC00A9
:100262000530FD00FD0B3329FC0B3329FB0B332931
:10027200000000000130E7005D260130DD000130A2
:10028200DE002030CC004130CD007230CE00643030
:10029200CF007530D0006930D1006E30D2006F309F
:1002A200D3002030D4006530D5006E30D6004A30FD
:1002B200D7006F30D8007930D9002130DA002030F1
:1002C200DB00DC014C30DF009D260830FB009D3056
:1002D200FC000530FD00FD0B6C29FC0B6C29FB0BAF
:1002E2006C29000000000130E7005D260130DD00CE
:1002F2000130DE004330CC005030CD004D30CE0016
:100302003A30CF00D0014C30DF009D260230DD00B4
:100312000230DE005330CC007630CD002F30CE00DC
:100322006830CF003A30D000D1014C30DF009D263A
:100332000230DD000130DE004027051DA529B7147B
:100342006330BC00BD01A929B7103130BC00BD012A
:10035200B71CB3290230E4001030E5005330E60048
:100362001027BA290230E4001030E5004630E600DA
:100372001027CF308F002C308E003530900083163E
:100382000C140113D0308B008312371D4F2B8B13AB
:100392003711B71CE3294408F0004508F10046086C
:1003A200F2004708F3000630F400F501F601F70108
:1003B200D9267008B8007108B9007208BA0073082B
:1003C200BB00F9294408F0004508F1004608F20094
:1003D2004708F3000C30F400F501F601F701D926C5
:1003E2007008B8007108B9007208BA007308BB003F
:1003F2003808F0003908F1003A08F2003B08F3002F
:100402003930F400F501F601F701D9267008B10080
:100412007108B2007208B3007308B4003808DD0036
:100422003908DE003A08DF003B08E0002530E10031
:100432007D242530DD0066270130DD000530DE0039
:100442002030CC002030CD002030CE002030CF0034
:100452002030D0002030D1002030D200D3014C30E7
:10046200DF009D260130DD000530DE002530DF0093
:100472009D264030F4004230F5000F30F600003087
:10048200F7003108F0003208F1003308F2003408B6
:10049200F3005A257008B5007108B6000230E40076
:1004A2000730E5007008303EE6001027A030F40067
:1004B2008630F5000130F6000030F7003108F00018
:1004C2003208F1003308F2003408F3005A250A30EA
:1004D200F400F501F601F7015A257808F0007908D1
:1004E200F1007A08F2007B08F3007008B500710889
:1004F200B6007008303EE400D8271030F4002730F0
:10050200F500F601F7013108F0003208F100330876
:10051200F2003408F3005A250A30F400F501F6011E
:10052200F7015A257808F0007908F1007A08F200FC
:100532007B08F3007008B5007108B6007008303E01
:10054200E400D8272E30E400D827E830F400033046
:10055200F500F601F7013108F0003208F100330826
:10056200F2003408F3005A250A30F400F501F601CE
:10057200F7015A257808F0007908F1007A08F200AC
:100582007B08F3007008B5007108B6007008303EB1
:10059200E400D8276430F400F501F601F7013108D0
:1005A200F0003208F1003308F2003408F3005A2553
:1005B2000A30F400F501F601F7015A257808F00037
:1005C2007908F1007A08F2007B08F3007008B500A0
:1005D2007108B6007008303EE400D8270A30F400F3
:1005E200F501F601F7013108F0003208F100330895
:1005F200F2003408F3005A250A30F400F501F6013E
:10060200F7015A257808F0007908F1007A08F2001B
:100612007B08F3007008B5007108B6007008303E20
:10062200E400D8278030F00080303B067002031DC2
:10063200242B3A08003C031D242B3908033C031DDC
:10064200242B3808E73C0318392B0130DD000C302D
:10065200DE004130CC004C30CD004530CE0052306F
:10066200CF005430D000D1014C30DF009D264B2BFF
:100672000130DD000C30DE002030CC002030CD0017
:100682002030CE002030CF002030D000D1014C30BD
:10069200DF009D262530DD0089278B17C529502BC9
:1006A2007408F8027508031C750FF9027608031C1A
:1006B200760FFA027708031C770FFB02F30D07305F
:1006C200FC00730DF80DF90DFA0DFB0D7408731C87
:1006D200782BF8027508031C750FF9027608031CC3
:1006E200760FFA027708031C770FFB02852BF807B7
:1006F20075080318750FF90776080318760FFA07BD
:1007020077080318770FFB07F30DFC0B622B720DB2
:10071200F80DF90DFA0DFB0D7408731C9E2BF802EF
:100722007508031C750FF9027608031C760FFA028E
:100732007708031C770FFB02AB2BF8077508031829
:10074200750FF90776080318760FFA07770803186A
:10075200770FFB07F20D0730FC00720DF80DF90D53
:10076200FA0DFB0D7408721CC42BF8027508031CE9
:10077200750FF9027608031C760FFA027708031C3C
:10078200770FFB02D12BF80775080318750FF907CD
:1007920076080318760FFA0777080318770FFB0716
:1007A200F20DFC0BAE2B710DF80DF90DFA0DFB0DD0
:1007B2007408721CEA2BF8027508031C750FF90203
:1007C2007608031C760FFA027708031C770FFB02E8
:1007D200F72BF80775080318750FF9077608031841
:1007E200760FFA0777080318770FFB07F10D07302A
:1007F200FC00710DF80DF90DFA0DFB0D7408711C5A
:10080200102CF8027508031C750FF9027608031CF8
:10081200760FFA027708031C770FFB021D2CF807EC
:1008220075080318750FF90776080318760FFA078B
:1008320077080318770FFB07F10DFC0BFA2B700DED
:10084200F80DF90DFA0DFB0D7408711C362CF80227
:100852007508031C750FF9027608031C760FFA025D
:100862007708031C770FFB02432CF807750803185F
:10087200750FF90776080318760FFA077708031839
:10088200770FFB07F00D0730FC00700DF80DF90D26
:10089200FA0DFB0D7408701C5C2CF8027508031C21
:1008A200750FF9027608031C760FFA027708031C0B
:1008B200770FFB02692CF80775080318750FF90703
:1008C20076080318760FFA0777080318770FFB07E5
:1008D200F00DFC0B462C70187C2C7408F807750878
:1008E2000318750FF90776080318760FFA077708C9
:0808F2000318770FFB07080053
:1008FA00831203136008803A031D8D2C5F08003AA7
:10090A00031D8D2C5E08003A031D8D2C5D08003AEC
:10091A00031DB52C610884002D308000840A323012
:10092A008000840A31308000840A34308000840ACE
:10093A0037308000840A34308000840A38308000DE
:10094A00840A33308000840A36308000840A3430C6
:10095A008000840A38308000840A8001840A592D74
:10096A00E30180306006F00080307002031DC72C5E
:10097A0000305F02031DC72C00305E02031DC72C26
:10098A0000305D020318E52CFF30E300F001F101AD
:10099A00F201F3015D08F0025E08031C5E0FF1022A
:1009AA005F08031C5F0FF2026008031C600FF3026A
:1009BA007008DD007108DE007208DF007308E000CD
:1009CA006108840020308000840A20308000840A74
:1009DA0020308000840A20308000840A2030800081
:1009EA00840A20308000840A20308000840A203063
:1009FA008000840A20308000840A20308000840A23
:100A0A0030308000840A8001840A0A306107E200DB
:100A1A000030F0006006031D1C2D70085F06031DE0
:100A2A001C2D70085E06031D1C2D5D08003A031973
:100A3A00522D0A30F400F501F601F7015D08F000C5
:100A4A005E08F1005F08F2006008F3005A25780892
:100A5A00F0007908F1007A08F2007B08F3003030E0
:100A6A00F00762088400700880000A30F400F5017B
:100A7A00F601F7015D08F0005E08F1005F08F20078
:100A8A006008F3005A257008DD007108DE0072085C
:100A9A00DF007308E000E2030D2D63080319592DE6
:0A0AAA00620884002D30800008006F
:100AB400831203137408003A031D752D7508003A58
:100AC400031D752D7608003A031D752D7708003A2D
:100AD400031D752DFF30F000FF30F100FF30F200F0
:100AE4007F30F3000E2E83120313FC01F71BFC0A64
:100AF400FD01FB01FA01F901F801730872047104A4
:100B040070040319092E73087706A000A01BFD09C1
:100B1400F71F972DF409F509F609F709F40A0319E3
:100B2400F50A0319F60A0319F70AF31FA42DF009AD
:100B3400F109F209F309F00A0319F10A0319F20A97
:100B44000319F30A73087704A000A01BC52D5123D1
:100B5400FC1BE22DFD1F092EF009F109F209F3092E
:100B6400F00A0319F10A0319F20A0319F30AF8093E
:100B7400F909FA09FB09F80A0319F90A0319FA0A27
:100B84000319FB0A092EF71FDC2DF31BD62D73085E
:100B9400FB007208FA007108F9007008F800F3010C
:100BA400F201F101F001AC2DF301F201F101F001C8
:100BB400F00A0034F309F209F109F009FC17A92D30
:100BC400F80A0319F90A0319FA0A0319FB0A740843
:100BD4007802031DAC2D75087902031DAC2D76082F
:100BE4007A02031DAC2D77087B02031DAC2DFB019B
:100BF400FA01F901F801F00A0319F10A0319F20ADA
:100C04000319F30AF31FAC2DA0012016FF34A00131
:0A0C14007C1C0D2EAF27003E0800E7
:100C1E00831603130510851086130613861206120B
:100C2E008312051085100612861206138613BB2733
:100C3E00BB27BB27061786170514E7270510BB270A
:100C4E000514E7270510BB270514E7270510BB275A
:100C5E0086130514E7270510BB270514E727051093
:100C6E00061306160514E7270510BB27061286176E
:100C7E000514E727051086130514E7270510BB2773
:100C8E000514E727051086170514E7270510BB275F
:100C9E0086130514E72705100616861606178617FF
:0C0CAE000514E7270510BB2737140800C9
:100CBA0083120313E71B632E0612642E0616671BA4
:100CCA00682E8612692E8616E71A6D2E06136E2E68
:100CDA000617671A722E8613732E86173718772E01
:100CEA008514782E85100514E7270510E7197F2E3D
:100CFA000612802E06166719842E8612852E8616EF
:100D0A00E718892E06138A2E061767188E2E861361
:100D1A008F2E86173718932E8514942E8510051456
:100D2A00E7270510371C9B2EBB279C2ED0270800CF
:100D3A00831203135D08013A031DA62E8030DD00DD
:100D4A00BD2E5D08023A031DAD2EC030DD00BD2E5A
:100D5A005D08033A031DB42E9430DD00BD2E5D08F4
:100D6A00043A031DBB2ED430DD00BD2E8030DD00D9
:100D7A005E03F0005D08F0077008DD007008E70008
:100D8A005D263710E00160085F0784000008003A1A
:100D9A000319D72E60085F0784000008E400D827EB
:080DAA00E00AC82E371408000E
:100DB200831203132230FC00F801F901FA01FB014E
:100DC200FC0303190F2F0310FB0CFA0CF90CF80C9F
:100DD200F30CF20CF10CF00C031CE12EFC030319D2
:100DE200012F7408F80775080318750FF9077608BC
:100DF2000318760FFA0777080318770FFB07E52E1B
:100E02007408F80775080318750FF90776080318B0
:0E0E1200760FFA0777080318770FFB07080022
:100E2000831203136408013A031D192F8030E40074
:100E3000302F6408023A031D202FC030E400302F09
:100E40006408033A031D272F9430E400302F640810
:100E5000043A031D2E2FD430E400302F8030E400FC
:100E60006503F0006408F0077008E40037147008A8
:100E7000E7005D2637106608E7005D263714080096
:100E8000403083120313E7005D26DF015F08E93E6F
:100E9000F00007300318013EF1007008BE00710831
:100EA000BF00E0278A110A12E400D8275F08073A3A
:100EB00003195C2FDF0A462F0230E7005D265D082C
:0C0EC000E4005E08E500E60110270800D1
:100ECC00831203135D08F1005D08F20072088400C0
:100EDC000008203A031D742FF20A6C2F720884004C
:100EEC000008F0007108840070088000F10AF20A12
:100EFC00720884000008003A0319852F742F7108BA
:060F0C00840080010800D2
:100F120083120313DE015D0884000008DF005F080E
:100F2200003A03199E2F5F08E400C627DE0A5E0816
:0C0F32005D0784000008DF00902F08001D
:100F3E008316031398169030831298008316861426
:100F4E00061183128C1EAE2F1A08F000A82F08006F
:100F5E00FB09FA09F909F809F80A0319F90A03193C
:080F6E00FA0A0319FB0A08004E
:100F7600083083120313FC002330FD00FD0BC12F44
:060F8600FC0BC12F080066
:100F8C00831603139818CC2F0000C62F8312640805
:040F9C0099000800B0
:100FA000103083120313FD00FD0BD42F0000080046
:100FB0008312031337106408E7005D263714080016
:0E0FC000831203133F088A003E0882000800D7
:040FCE000000080017
:100FD20011341134113411341934163410341034DC
:02400E006A2125
:00000001FF
