:020000005E2878
:10000800FF00030E8301C4000A08C5008A017008B6
:10001800A4007108A3007208A2007308A1000C1CB8
:1000280035284B083D06031D1B283C084A06031DBE
:100038002D284608C0004708C1004808C2004908E2
:10004800C300C601C701C801C901CA01CB013715E0
:100058003028CA0A0319CB0ACF308F002C308E0003
:100068000C108B1C4F284608F0004708F100480880
:10007800F2004908F300F00A0319F10A0319F20A19
:100088000319F30A7008C6007108C7007208C8008F
:100098007308C9008B102408F0002308F100220817
:1000A800F2002108F30045088A00440E8300FF0E81
:0400B8007F0E0900AE
:1000BC0083120313C001C101C201C301C601C701F0
:1000CC00C801C901CA01CB01371104308316850060
:1000DC0001308600073083129F008511673083162C
:1000EC00990018156527C330FC00CD30FD00FD0BC1
:1000FC007D28FC0B7D28D5251A30FC00F830FD003E
:10010C00FD0B8628FC0B862800000130E600232618
:10011C000C30E60023260130DC000230DD005230CA
:10012C00CC006130CD006430CE006930CF006F3030
:10013C00D0004830D1006F30D2006230D300623032
:10014C00D4007930D5005330D6007430D7006F30DE
:10015C00D8007230D9006530DA00DB014C30DE009B
:10016C0063260230DC000430DD004530CC006C30FE
:10017C00CD006530CE006330CF007430D0007230CB
:10018C00D1006F30D2006E30D3006930D4006330B0
:10019C00D5007330D600D7014C30DE006326083012
:1001AC00FB009D30FC000530FD00FD0BDB28FC0B3B
:1001BC00DB28FB0BDB28000000000130E6002326C7
:1001CC000130DC000230DD004730CC006530CD0062
:1001DC006930CE006730CF006530D0007230D1006E
:1001EC002030D2004330D3006F30D4007530D500AE
:1001FC006E30D6007430D7006530D8007230D9001C
:10020C00DA014C30DE0063260230DC000330DD0006
:10021C007630CC006530CD007230CE007330CF001C
:10022C006930D0006F30D1006E30D2002030D30056
:10023C003130D4002E30D5003030D6003230D700DB
:10024C00D8014C30DE0063260830FB009D30FC00EA
:10025C000530FD00FD0B3029FC0B3029FB0B302940
:10026C00000000000130E60023260130DC000130E4
:10027C00DD004330CC005030CD004D30CE003A3054
:10028C00CF00D0014C30DE0063260230DC0002309F
:10029C00DD005330CC007630CD002F30CE006830EE
:1002AC00CF003A30D000D1014C30DE006326023052
:1002BC00DC000130DD000627051D6929B714633009
:1002CC00BC00BD016D29B7103130BC00BD01B71C9D
:1002DC0077290230E3001030E4005330E500D626D5
:1002EC007E290230E3001030E4004630E500D626CB
:1002FC00CF308F002C308E003530900083160C14CC
:10030C000113D0308B008312371D152B8B13371133
:10031C00B71CA7294008F0004108F1004208F20080
:10032C004308F3000630F400F501F601F7019F26AF
:10033C007008B8007108B9007208BA007308BB00E5
:10034C00BD294008F0004108F1004208F2004308C2
:10035C00F3000C30F400F501F601F7019F2670084C
:10036C00B8007108B9007208BA007308BB003808ED
:10037C00F0003908F1003A08F2003B08F30039307C
:10038C00F400F501F601F7019F267008B100710821
:10039C00B2007208B3007308B4003808DC003908E6
:1003AC00DD003A08DE003B08DF002530E000432486
:1003BC002530DC002C270130DC000530DD0020303E
:1003CC00CC002030CD002030CE002030CF002030AB
:1003DC00D0002030D1002030D200D3014C30DE00D0
:1003EC0063260130DC000530DD002530DE0063269D
:1003FC004030F4004230F5000F30F6000030F700CA
:10040C003108F0003208F1003308F2003408F30030
:10041C0020257008B5007108B6000230E3000730E3
:10042C00E4007008303EE500D626A030F40086309B
:10043C00F5000130F6000030F7003108F00032080A
:10044C00F1003308F2003408F30020250A30F400E0
:10045C00F501F601F70120257808F0007908F10084
:10046C007A08F2007B08F3007008B5007108B6003A
:10047C007008303EE3009E271030F4002730F50062
:10048C00F601F7013108F0003208F1003308F200F0
:10049C003408F30020250A30F400F501F601F701C9
:1004AC0020257808F0007908F1007A08F2007B0822
:1004BC00F3007008B5007108B6007008303EE30018
:1004CC009E272E30E3009E27E830F4000330F50021
:1004DC00F601F7013108F0003208F1003308F200A0
:1004EC003408F30020250A30F400F501F601F70179
:1004FC0020257808F0007908F1007A08F2007B08D2
:10050C00F3007008B5007108B6007008303EE300C7
:10051C009E276430F400F501F601F7013108F00074
:10052C003208F1003308F2003408F30020250A30B9
:10053C00F400F501F601F70120257808F0007908A0
:10054C00F1007A08F2007B08F3007008B50071081E
:10055C00B6007008303EE3009E270A30F400F50127
:10056C00F601F7013108F0003208F1003308F2000F
:10057C003408F30020250A30F400F501F601F701E8
:10058C0020257808F0007908F1007A08F2007B0841
:10059C00F3007008B5007108B6007008303EE30037
:1005AC009E278030F00080303B067002031DE82A45
:1005BC003A08003C031DE82A3908033C031DE82ACD
:1005CC003808E73C0318FE2A85150130DC000C3096
:1005DC00DD004130CC004C30CD004530CE005230E7
:1005EC00CF005430D000D1014C30DE006326112BEB
:1005FC0085110130DC000C30DD002030CC002030C7
:10060C00CD002030CE002030CF002030D000D101E2
:10061C004C30DE0063262530DC004F278B178929F0
:02062C00162B8B
:10062E007408F8027508031C750FF9027608031C8E
:10063E00760FFA027708031C770FFB02F30D0730D3
:10064E00FC00730DF80DF90DFA0DFB0D7408731CFB
:10065E003E2BF8027508031C750FF9027608031C71
:10066E00760FFA027708031C770FFB024B2BF80765
:10067E0075080318750FF90776080318760FFA0731
:10068E0077080318770FFB07F30DFC0B282B720D61
:10069E00F80DF90DFA0DFB0D7408731C642BF8029E
:1006AE007508031C750FF9027608031C760FFA0203
:1006BE007708031C770FFB02712BF80775080318D8
:1006CE00750FF90776080318760FFA0777080318DF
:1006DE00770FFB07F20D0730FC00720DF80DF90DC8
:1006EE00FA0DFB0D7408721C8A2BF8027508031C98
:1006FE00750FF9027608031C760FFA027708031CB1
:10070E00770FFB02972BF80775080318750FF9077B
:10071E0076080318760FFA0777080318770FFB078A
:10072E00F20DFC0B742B710DF80DF90DFA0DFB0D7E
:10073E007408721CB02BF8027508031C750FF902B1
:10074E007608031C760FFA027708031C770FFB025C
:10075E00BD2BF80775080318750FF90776080318EF
:10076E00760FFA0777080318770FFB07F10D07309E
:10077E00FC00710DF80DF90DFA0DFB0D7408711CCE
:10078E00D62BF8027508031C750FF9027608031CA8
:10079E00760FFA027708031C770FFB02E32BF8079C
:1007AE0075080318750FF90776080318760FFA0700
:1007BE0077080318770FFB07F10DFC0BC02B700D9C
:1007CE00F80DF90DFA0DFB0D7408711CFC2BF802D7
:1007DE007508031C750FF9027608031C760FFA02D2
:1007EE007708031C770FFB02092CF807750803180E
:1007FE00750FF90776080318760FFA0777080318AE
:10080E00770FFB07F00D0730FC00700DF80DF90D9A
:10081E00FA0DFB0D7408701C222CF8027508031CCF
:10082E00750FF9027608031C760FFA027708031C7F
:10083E00770FFB022F2CF80775080318750FF907B1
:10084E0076080318760FFA0777080318770FFB0759
:10085E00F00DFC0B0C2C7018422C7408F807750860
:10086E000318750FF90776080318760FFA0777083D
:08087E000318770FFB070800C7
:10088600831203135F08803A031D532C5E08003A57
:10089600031D532C5D08003A031D532C5C08003AD7
:1008A600031D7B2C600884002D308000840A3230C2
:1008B6008000840A31308000840A34308000840A43
:1008C60037308000840A34308000840A3830800053
:1008D600840A33308000840A36308000840A34303B
:1008E6008000840A38308000840A8001840A1F2D23
:1008F600E20180305F06F00080307002031D8D2C0F
:1009060000305E02031D8D2C00305D02031D8D2C10
:1009160000305C020318AB2CFF30E200F001F1015D
:10092600F201F3015C08F0025D08031C5D0FF102A1
:100936005E08031C5E0FF2025F08031C5F0FF302E2
:100946007008DC007108DD007208DE007308DF0045
:100956006008840020308000840A20308000840AE9
:1009660020308000840A20308000840A20308000F5
:10097600840A20308000840A20308000840A2030D7
:100986008000840A20308000840A20308000840A97
:1009960030308000840A8001840A0A306007E10052
:1009A6000030F0005F06031DE22C70085E06031D92
:1009B600E22C70085D06031DE22C5C08003A031960
:1009C600182D0A30F400F501F601F7015C08F00075
:1009D6005D08F1005E08F2005F08F3002025780844
:1009E600F0007908F1007A08F2007B08F300303055
:1009F600F00761088400700880000A30F400F501F1
:100A0600F601F7015C08F0005D08F1005E08F200EF
:100A16005F08F30020257008DC007108DD0072080D
:100A2600DE007308DF00E103D32C620803191F2DD3
:0A0A3600610884002D3080000800E4
:100A4000831203137408003A031D3B2D7508003A06
:100A5000031D3B2D7608003A031D3B2D7708003A15
:100A6000031D3B2DFF30F000FF30F100FF30F2009E
:100A70007F30F300D42D83120313FC01F71BFC0A13
:100A8000FD01FB01FA01F901F80173087204710418
:100A900070040319CF2D73087706A000A01BFD0971
:100AA000F71F5D2DF409F509F609F709F40A031992
:100AB000F50A0319F60A0319F70AF31F6A2DF0095C
:100AC000F109F209F309F00A0319F10A0319F20A0C
:100AD0000319F30A73087704A000A01B8B2D1723BA
:100AE000FC1BA82DFD1FCF2DF009F109F209F30918
:100AF000F00A0319F10A0319F20A0319F30AF809B3
:100B0000F909FA09FB09F80A0319F90A0319FA0A9B
:100B10000319FB0ACF2DF71FA22DF31B9C2D730881
:100B2000FB007208FA007108F9007008F800F30180
:100B3000F201F101F001722DF301F201F101F00176
:100B4000F00A0034F309F209F109F009FC176F2DDE
:100B5000F80A0319F90A0319FA0A0319FB0A7408B7
:100B60007802031D722D75087902031D722D760817
:100B70007A02031D722D77087B02031D722DFB0183
:100B8000FA01F901F801F00A0319F10A0319F20A4E
:100B90000319F30AF31F722DA0012016FF34A001E0
:0A0BA0007C1CD32D7527003E0800D1
:100BAA008316031305108510861306138612061280
:100BBA0083120510851006128612061386138127E2
:100BCA0081278127061786170514AD270510812767
:100BDA000514AD27051081270514AD2705108127B7
:100BEA0086130514AD27051081270514AD270510B6
:100BFA00061306160514AD27051081270612861757
:100C0A000514AD27051086130514AD270510812795
:100C1A000514AD27051086170514AD270510812781
:100C2A0086130514AD2705100616861606178617AD
:0C0C3A000514AD270510812737140800B1
:100C460083120313E61B292E06122A2E0616661B8E
:100C56002E2E86122F2E8616E61A332E0613342EC5
:100C66000617661A382E8613392E861737183D2E24
:100C760085143E2E85100514AD270510E619452E60
:100C86000612462E061666194A2E86124B2E861612
:100C9600E6184F2E0613502E06176618542E861386
:100CA600552E86173718592E85145A2E8510051479
:100CB600AD270510371C612E8127622E9627080066
:100CC600831203135C08013A031D6C2E8030DC008E
:100CD600832E5C08023A031D732EC030DC00832E7F
:100CE6005C08033A031D7A2E9430DC00832E5C08E0
:100CF600043A031D812ED430DC00832E8030DC00C4
:100D06005D03F0005C08F0077008DC007008E60080
:100D160023263710DF015F085E0784000008003ACB
:100D260003199D2E5F085E0784000008E3009E27D6
:080D3600DF0A8E2E37140800BD
:100D3E00831203132230FC00F801F901FA01FB01C2
:100D4E00FC030319D52E0310FB0CFA0CF90CF80C4E
:100D5E00F30CF20CF10CF00C031CA72EFC03031980
:100D6E00C72E7408F80775080318750FF90776086B
:100D7E000318760FFA0777080318770FFB07AB2EC9
:100D8E007408F80775080318750FF9077608031825
:0E0D9E00760FFA0777080318770FFB07080097
:100DAC00831203136308013A031DDF2E8030E30026
:100DBC00F62E6308023A031DE62EC030E300F62E31
:100DCC006308033A031DED2E9430E300F62E6308FE
:100DDC00043A031DF42ED430E300F62E8030E300E9
:100DEC006403F0006308F0077008E3003714700820
:100DFC00E600232637106508E60023263714080082
:100E0C00403083120313E6002326DE015E08AF3E5A
:100E1C00F00007300318013EF1007008BE007108A5
:100E2C00BF00A6278A110A12E3009E275E08073A24
:100E3C000319222FDE0A0C2F0230E60023265C0851
:0C0E4C00E3005D08E400E501D626080084
:100E5800831203135C08F1005C08F2007208840036
:100E68000008203A031D3A2FF20A322F7208840034
:100E78000008F0007108840070088000F10AF20A86
:100E8800720884000008003A03194B2F3A2F7108A2
:060E980084008001080047
:100E9E0083120313DD015C0884000008DE005E0887
:100EAE00003A0319642F5E08E3008C27DD0A5D0803
:0C0EBE005C0784000008DE00562F0800CE
:100ECA00831603139816903083129800831686149B
:100EDA00061183128C1E742F1A08F0006E2F080058
:100EEA00FB09FA09F909F809F80A0319F90A0319B1
:080EFA00FA0A0319FB0A0800C3
:100F0200083083120313FC002330FD00FD0B872FF2
:060F1200FC0B872F080014
:100F1800831603139818922F00008C2F83126308EE
:040F28009900080024
:100F2C00103083120313FD00FD0B9A2F00000800F4
:100F3C008312031337106308E600232637140800C6
:0E0F4C00831203133F088A003E08820008004B
:040F5A00000008008B
:100F5E001134113411341134193416341034103450
:02400E006A2125
:00000001FF
